{
	"data": {
		"bytecode": {
			"linkReferences": {},
			"object": "60e060405234801561001057600080fd5b507307865c6e87b9f70255377e024ace6630c1eaa37f608052739923d42ef695b5dd9911d05ac944d4caca3c4eab60a08190526040805163d509b01760e01b8152905163d509b017916004808201926020929091908290030181865afa15801561007e573d6000803e3d6000fd5b505050506040513d601f19601f820116820180604052508101906100a291906100aa565b60c0526100c3565b6000602082840312156100bc57600080fd5b5051919050565b60805160a05160c0516115a26101306000396000818161017401526103c801526000818161011801528181610207015281816102d8015281816102ff015261062e01526000818160b8015281816101d901528181610281015281816102b601526103a401526115a26000f3fe608060405234801561001057600080fd5b50600436106100885760003560e01c8063b75d4e241161005b578063b75d4e241461013a578063d448a4ec1461015c578063d509b0171461016f578063f1b156b21461019657600080fd5b8063096464cc1461008d57806320402e1d146100b35780636ced1ae9146100f25780638921a61414610113575b600080fd5b6100a061009b366004610f77565b6101a9565b6040519081526020015b60405180910390f35b6100da7f000000000000000000000000000000000000000000000000000000000000000081565b6040516001600160a01b0390911681526020016100aa565b610105610100366004611012565b61053f565b6040516100aa92919061107b565b6100da7f000000000000000000000000000000000000000000000000000000000000000081565b610143610e1081565b60405167ffffffffffffffff90911681526020016100aa565b61016d61016a366004611012565b50565b005b6100a07f000000000000000000000000000000000000000000000000000000000000000081565b61016d6101a43660046110a4565b610623565b60006001600160a01b038216156101c057816101c2565b335b604051634360af3d60e01b81526001600160a01b037f0000000000000000000000000000000000000000000000000000000000000000811660048301529193506000917f00000000000000000000000000000000000000000000000000000000000000001690634360af3d90602401602060405180830381865afa15801561024e573d6000803e3d6000fd5b505050506040513d601f19601f8201168201806040525081019061027291906110d4565b90506102a96001600160a01b037f0000000000000000000000000000000000000000000000000000000000000000163330846107d7565b6102fd6001600160a01b037f0000000000000000000000000000000000000000000000000000000000000000167f000000000000000000000000000000000000000000000000000000000000000083610848565b7f00000000000000000000000000000000000000000000000000000000000000006001600160a01b0316636457c97986866103378a610967565b610340886109a8565b610349896109a8565b610352426109ff565b61035b306109a8565b6040516020016103719796959493929190611109565b60408051601f19818403018152908290526001600160e01b031960e084901b1682526103f29187903090600090610e10907f0000000000000000000000000000000000000000000000000000000000000000908a907f0000000000000000000000000000000000000000000000000000000000000000908590600401611250565b6020604051808303816000875af1158015610411573d6000803e3d6000fd5b505050506040513d601f19601f8201168201806040525081019061043591906110d4565b9150604051806080016040528087815260200186868080601f01602080910402602001604051908101604052809392919081815260200183838082843760009201829052509385525050506001600160a01b0386166020808401919091526040928301829052858252818152919020825181559082015160018201906104bb908261135c565b50604082810151600290920180546060909401511515600160a01b026001600160a81b03199094166001600160a01b0393841617939093179092559051839185169088907fb3b5c304bc1ba781ea735c86e786e9ae6432b86b469fbc00ec8bb252bf54eda89061052e908a908a9061141c565b60405180910390a450949350505050565b600081815260208190526040812060020154606090600160a01b900460ff1661057a5750506040805160208101909152600080825292909150565b600083815260208190526040902060019081018054819061059a906112d4565b80601f01602080910402602001604051908101604052809291908181526020018280546105c6906112d4565b80156106135780601f106105e857610100808354040283529160200191610613565b820191906000526020600020905b8154815290600101906020018083116105f657829003601f168201915b5050505050905091509150915091565b336001600160a01b037f0000000000000000000000000000000000000000000000000000000000000000161461065857600080fd5b80156107a25760008281526020818152604080832060028101805460ff60a01b1916600160a01b1790558151608081019092528054825260018101805492939192918401916106a6906112d4565b80601f01602080910402602001604051908101604052809291908181526020018280546106d2906112d4565b801561071f5780601f106106f45761010080835404028352916020019161071f565b820191906000526020600020905b81548152906001019060200180831161070257829003601f168201915b5050509183525050600291909101546001600160a01b03808216602080850191909152600160a01b90920460ff16151560409384015283830151845192850151935194955087949116927f2cd47d03ca5eed86ed11475382af40bc0f2965dd65bc4ab337d45577ea5dfaf991610795919061144b565b60405180910390a4505050565b6000828152602081905260408120818155906107c16001830182610f29565b5060020180546001600160a81b03191690555050565b6040516001600160a01b03808516602483015283166044820152606481018290526108429085906323b872dd60e01b906084015b60408051601f198184030181529190526020810180516001600160e01b03166001600160e01b031990931692909217909152610b2b565b50505050565b8015806108c25750604051636eb1769f60e11b81523060048201526001600160a01b03838116602483015284169063dd62ed3e90604401602060405180830381865afa15801561089c573d6000803e3d6000fd5b505050506040513d601f19601f820116820180604052508101906108c091906110d4565b155b6109325760405162461bcd60e51b815260206004820152603660248201527f5361666545524332303a20617070726f76652066726f6d206e6f6e2d7a65726f60448201527520746f206e6f6e2d7a65726f20616c6c6f77616e636560501b60648201526084015b60405180910390fd5b6040516001600160a01b03831660248201526044810182905261096290849063095ea7b360e01b9060640161080b565b505050565b6060610976608083901c610c00565b61097f83610c00565b6040805160208101939093528201526060015b6040516020818303038152906040529050919050565b60606109c06001600160801b03602084901c16610c00565b6109db8360601b6bffffffffffffffffffffffff1916610c00565b6040516020016109929291909182526001600160c01b031916602082015260280190565b606081600003610a265750506040805180820190915260018152600360fc1b602082015290565b8160005b8115610a505780610a3a8161147b565b9150610a499050600a836114aa565b9150610a2a565b60008167ffffffffffffffff811115610a6b57610a6b6112be565b6040519080825280601f01601f191660200182016040528015610a95576020820181803683370190505b509050815b8515610b2257610aab6001826114cc565b90506000610aba600a886114aa565b610ac590600a6114e5565b610acf90886114cc565b610ada906030611504565b905060008160f81b905080848481518110610af757610af761151d565b60200101906001600160f81b031916908160001a905350610b19600a896114aa565b97505050610a9a565b50949350505050565b6000610b80826040518060400160405280602081526020017f5361666545524332303a206c6f772d6c6576656c2063616c6c206661696c6564815250856001600160a01b0316610d999092919063ffffffff16565b9050805160001480610ba1575080806020019051810190610ba19190611533565b6109625760405162461bcd60e51b815260206004820152602a60248201527f5361666545524332303a204552433230206f7065726174696f6e20646964206e6044820152691bdd081cdd58d8d9595960b21b6064820152608401610929565b6000808260001c9050806001600160801b03169050806801000000000000000002811777ffffffffffffffff0000000000000000ffffffffffffffff169050806401000000000281177bffffffff00000000ffffffff00000000ffffffff00000000ffffffff16905080620100000281177dffff0000ffff0000ffff0000ffff0000ffff0000ffff0000ffff0000ffff169050806101000281177eff00ff00ff00ff00ff00ff00ff00ff00ff00ff00ff00ff00ff00ff00ff00ff1690508060100281177f0f0f0f0f0f0f0f0f0f0f0f0f0f0f0f0f0f0f0f0f0f0f0f0f0f0f0f0f0f0f0f0f16905060006008827f08080808080808080808080808080808080808080808080808080808080808081681610d1b57610d1b611494565b0460047f040404040404040404040404040404040404040404040404040404040404040484160460027f020202020202020202020202020202020202020202020202020202020202020285160417166027029091017f3030303030303030303030303030303030303030303030303030303030303030019392505050565b6060610da88484600085610db0565b949350505050565b606082471015610e115760405162461bcd60e51b815260206004820152602660248201527f416464726573733a20696e73756666696369656e742062616c616e636520666f6044820152651c8818d85b1b60d21b6064820152608401610929565b600080866001600160a01b03168587604051610e2d9190611550565b60006040518083038185875af1925050503d8060008114610e6a576040519150601f19603f3d011682016040523d82523d6000602084013e610e6f565b606091505b5091509150610e8087838387610e8b565b979650505050505050565b60608315610efa578251600003610ef3576001600160a01b0385163b610ef35760405162461bcd60e51b815260206004820152601d60248201527f416464726573733a2063616c6c20746f206e6f6e2d636f6e74726163740000006044820152606401610929565b5081610da8565b610da88383815115610f0f5781518083602001fd5b8060405162461bcd60e51b8152600401610929919061144b565b508054610f35906112d4565b6000825580601f10610f45575050565b601f01602090049060005260206000209081019061016a91905b80821115610f735760008155600101610f5f565b5090565b60008060008060608587031215610f8d57600080fd5b84359350602085013567ffffffffffffffff80821115610fac57600080fd5b818701915087601f830112610fc057600080fd5b813581811115610fcf57600080fd5b886020828501011115610fe157600080fd5b60209290920194509092505060408501356001600160a01b038116811461100757600080fd5b939692955090935050565b60006020828403121561102457600080fd5b5035919050565b60005b8381101561104657818101518382015260200161102e565b50506000910152565b6000815180845261106781602086016020860161102b565b601f01601f19169290920160200192915050565b8215158152604060208201526000610da8604083018461104f565b801515811461016a57600080fd5b600080604083850312156110b757600080fd5b8235915060208301356110c981611096565b809150509250929050565b6000602082840312156110e657600080fd5b5051919050565b600081516110ff81856020860161102b565b9290920192915050565b7f496d6167652061737365727465642061742075726c3a2000000000000000000081528688601783013760008782016f040ccdee440d2dac2ceca9288744060f60831b60178201528751611164816027840160208c0161102b565b70040c2dcc840c2e6e6cae4e8cae4744060f607b1b602792909101918201528651611196816038840160208b0161102b565b86519101906111ac816038840160208a0161102b565b6e01030ba103a34b6b2b9ba30b6b81d1608d1b6038929091019182015284516111dc81604784016020890161102b565b7f20696e207468652044617461417373657274657220636f6e7472616374206174604792909101918201526204060f60eb1b6067820152611242611223606a8301866110ed565b721034b9903737ba1030903232b2b83330b5b29760691b815260130190565b9a9950505050505050505050565b60006101208083526112648184018d61104f565b6001600160a01b039b8c166020850152998b1660408401525050958816606087015267ffffffffffffffff9490941660808601529190951660a084015260c083019490945260e08201939093526101000191909152919050565b634e487b7160e01b600052604160045260246000fd5b600181811c908216806112e857607f821691505b60208210810361130857634e487b7160e01b600052602260045260246000fd5b50919050565b601f82111561096257600081815260208120601f850160051c810160208610156113355750805b601f850160051c820191505b8181101561135457828155600101611341565b505050505050565b815167ffffffffffffffff811115611376576113766112be565b61138a8161138484546112d4565b8461130e565b602080601f8311600181146113bf57600084156113a75750858301515b600019600386901b1c1916600185901b178555611354565b600085815260208120601f198616915b828110156113ee578886015182559484019460019091019084016113cf565b508582101561140c5787850151600019600388901b60f8161c191681555b5050505050600190811b01905550565b60208152816020820152818360408301376000818301604090810191909152601f909201601f19160101919050565b60208152600061145e602083018461104f565b9392505050565b634e487b7160e01b600052601160045260246000fd5b60006001820161148d5761148d611465565b5060010190565b634e487b7160e01b600052601260045260246000fd5b6000826114c757634e487b7160e01b600052601260045260246000fd5b500490565b818103818111156114df576114df611465565b92915050565b60008160001904831182151516156114ff576114ff611465565b500290565b60ff81811683821601908111156114df576114df611465565b634e487b7160e01b600052603260045260246000fd5b60006020828403121561154557600080fd5b815161145e81611096565b6000825161156281846020870161102b565b919091019291505056fea264697066735822122022759d2ec01478f58482cfd77d95067e6904f299377122900a416de4b2e7c38464736f6c63430008100033",
			"opcodes": "PUSH1 0xE0 PUSH1 0x40 MSTORE CALLVALUE DUP1 ISZERO PUSH2 0x10 JUMPI PUSH1 0x0 DUP1 REVERT JUMPDEST POP PUSH20 0x7865C6E87B9F70255377E024ACE6630C1EAA37F PUSH1 0x80 MSTORE PUSH20 0x9923D42EF695B5DD9911D05AC944D4CACA3C4EAB PUSH1 0xA0 DUP2 SWAP1 MSTORE PUSH1 0x40 DUP1 MLOAD PUSH4 0xD509B017 PUSH1 0xE0 SHL DUP2 MSTORE SWAP1 MLOAD PUSH4 0xD509B017 SWAP2 PUSH1 0x4 DUP1 DUP3 ADD SWAP3 PUSH1 0x20 SWAP3 SWAP1 SWAP2 SWAP1 DUP3 SWAP1 SUB ADD DUP2 DUP7 GAS STATICCALL ISZERO DUP1 ISZERO PUSH2 0x7E JUMPI RETURNDATASIZE PUSH1 0x0 DUP1 RETURNDATACOPY RETURNDATASIZE PUSH1 0x0 REVERT JUMPDEST POP POP POP POP PUSH1 0x40 MLOAD RETURNDATASIZE PUSH1 0x1F NOT PUSH1 0x1F DUP3 ADD AND DUP3 ADD DUP1 PUSH1 0x40 MSTORE POP DUP2 ADD SWAP1 PUSH2 0xA2 SWAP2 SWAP1 PUSH2 0xAA JUMP JUMPDEST PUSH1 0xC0 MSTORE PUSH2 0xC3 JUMP JUMPDEST PUSH1 0x0 PUSH1 0x20 DUP3 DUP5 SUB SLT ISZERO PUSH2 0xBC JUMPI PUSH1 0x0 DUP1 REVERT JUMPDEST POP MLOAD SWAP2 SWAP1 POP JUMP JUMPDEST PUSH1 0x80 MLOAD PUSH1 0xA0 MLOAD PUSH1 0xC0 MLOAD PUSH2 0x15A2 PUSH2 0x130 PUSH1 0x0 CODECOPY PUSH1 0x0 DUP2 DUP2 PUSH2 0x174 ADD MSTORE PUSH2 0x3C8 ADD MSTORE PUSH1 0x0 DUP2 DUP2 PUSH2 0x118 ADD MSTORE DUP2 DUP2 PUSH2 0x207 ADD MSTORE DUP2 DUP2 PUSH2 0x2D8 ADD MSTORE DUP2 DUP2 PUSH2 0x2FF ADD MSTORE PUSH2 0x62E ADD MSTORE PUSH1 0x0 DUP2 DUP2 PUSH1 0xB8 ADD MSTORE DUP2 DUP2 PUSH2 0x1D9 ADD MSTORE DUP2 DUP2 PUSH2 0x281 ADD MSTORE DUP2 DUP2 PUSH2 0x2B6 ADD MSTORE PUSH2 0x3A4 ADD MSTORE PUSH2 0x15A2 PUSH1 0x0 RETURN INVALID PUSH1 0x80 PUSH1 0x40 MSTORE CALLVALUE DUP1 ISZERO PUSH2 0x10 JUMPI PUSH1 0x0 DUP1 REVERT JUMPDEST POP PUSH1 0x4 CALLDATASIZE LT PUSH2 0x88 JUMPI PUSH1 0x0 CALLDATALOAD PUSH1 0xE0 SHR DUP1 PUSH4 0xB75D4E24 GT PUSH2 0x5B JUMPI DUP1 PUSH4 0xB75D4E24 EQ PUSH2 0x13A JUMPI DUP1 PUSH4 0xD448A4EC EQ PUSH2 0x15C JUMPI DUP1 PUSH4 0xD509B017 EQ PUSH2 0x16F JUMPI DUP1 PUSH4 0xF1B156B2 EQ PUSH2 0x196 JUMPI PUSH1 0x0 DUP1 REVERT JUMPDEST DUP1 PUSH4 0x96464CC EQ PUSH2 0x8D JUMPI DUP1 PUSH4 0x20402E1D EQ PUSH2 0xB3 JUMPI DUP1 PUSH4 0x6CED1AE9 EQ PUSH2 0xF2 JUMPI DUP1 PUSH4 0x8921A614 EQ PUSH2 0x113 JUMPI JUMPDEST PUSH1 0x0 DUP1 REVERT JUMPDEST PUSH2 0xA0 PUSH2 0x9B CALLDATASIZE PUSH1 0x4 PUSH2 0xF77 JUMP JUMPDEST PUSH2 0x1A9 JUMP JUMPDEST PUSH1 0x40 MLOAD SWAP1 DUP2 MSTORE PUSH1 0x20 ADD JUMPDEST PUSH1 0x40 MLOAD DUP1 SWAP2 SUB SWAP1 RETURN JUMPDEST PUSH2 0xDA PUSH32 0x0 DUP2 JUMP JUMPDEST PUSH1 0x40 MLOAD PUSH1 0x1 PUSH1 0x1 PUSH1 0xA0 SHL SUB SWAP1 SWAP2 AND DUP2 MSTORE PUSH1 0x20 ADD PUSH2 0xAA JUMP JUMPDEST PUSH2 0x105 PUSH2 0x100 CALLDATASIZE PUSH1 0x4 PUSH2 0x1012 JUMP JUMPDEST PUSH2 0x53F JUMP JUMPDEST PUSH1 0x40 MLOAD PUSH2 0xAA SWAP3 SWAP2 SWAP1 PUSH2 0x107B JUMP JUMPDEST PUSH2 0xDA PUSH32 0x0 DUP2 JUMP JUMPDEST PUSH2 0x143 PUSH2 0xE10 DUP2 JUMP JUMPDEST PUSH1 0x40 MLOAD PUSH8 0xFFFFFFFFFFFFFFFF SWAP1 SWAP2 AND DUP2 MSTORE PUSH1 0x20 ADD PUSH2 0xAA JUMP JUMPDEST PUSH2 0x16D PUSH2 0x16A CALLDATASIZE PUSH1 0x4 PUSH2 0x1012 JUMP JUMPDEST POP JUMP JUMPDEST STOP JUMPDEST PUSH2 0xA0 PUSH32 0x0 DUP2 JUMP JUMPDEST PUSH2 0x16D PUSH2 0x1A4 CALLDATASIZE PUSH1 0x4 PUSH2 0x10A4 JUMP JUMPDEST PUSH2 0x623 JUMP JUMPDEST PUSH1 0x0 PUSH1 0x1 PUSH1 0x1 PUSH1 0xA0 SHL SUB DUP3 AND ISZERO PUSH2 0x1C0 JUMPI DUP2 PUSH2 0x1C2 JUMP JUMPDEST CALLER JUMPDEST PUSH1 0x40 MLOAD PUSH4 0x4360AF3D PUSH1 0xE0 SHL DUP2 MSTORE PUSH1 0x1 PUSH1 0x1 PUSH1 0xA0 SHL SUB PUSH32 0x0 DUP2 AND PUSH1 0x4 DUP4 ADD MSTORE SWAP2 SWAP4 POP PUSH1 0x0 SWAP2 PUSH32 0x0 AND SWAP1 PUSH4 0x4360AF3D SWAP1 PUSH1 0x24 ADD PUSH1 0x20 PUSH1 0x40 MLOAD DUP1 DUP4 SUB DUP2 DUP7 GAS STATICCALL ISZERO DUP1 ISZERO PUSH2 0x24E JUMPI RETURNDATASIZE PUSH1 0x0 DUP1 RETURNDATACOPY RETURNDATASIZE PUSH1 0x0 REVERT JUMPDEST POP POP POP POP PUSH1 0x40 MLOAD RETURNDATASIZE PUSH1 0x1F NOT PUSH1 0x1F DUP3 ADD AND DUP3 ADD DUP1 PUSH1 0x40 MSTORE POP DUP2 ADD SWAP1 PUSH2 0x272 SWAP2 SWAP1 PUSH2 0x10D4 JUMP JUMPDEST SWAP1 POP PUSH2 0x2A9 PUSH1 0x1 PUSH1 0x1 PUSH1 0xA0 SHL SUB PUSH32 0x0 AND CALLER ADDRESS DUP5 PUSH2 0x7D7 JUMP JUMPDEST PUSH2 0x2FD PUSH1 0x1 PUSH1 0x1 PUSH1 0xA0 SHL SUB PUSH32 0x0 AND PUSH32 0x0 DUP4 PUSH2 0x848 JUMP JUMPDEST PUSH32 0x0 PUSH1 0x1 PUSH1 0x1 PUSH1 0xA0 SHL SUB AND PUSH4 0x6457C979 DUP7 DUP7 PUSH2 0x337 DUP11 PUSH2 0x967 JUMP JUMPDEST PUSH2 0x340 DUP9 PUSH2 0x9A8 JUMP JUMPDEST PUSH2 0x349 DUP10 PUSH2 0x9A8 JUMP JUMPDEST PUSH2 0x352 TIMESTAMP PUSH2 0x9FF JUMP JUMPDEST PUSH2 0x35B ADDRESS PUSH2 0x9A8 JUMP JUMPDEST PUSH1 0x40 MLOAD PUSH1 0x20 ADD PUSH2 0x371 SWAP8 SWAP7 SWAP6 SWAP5 SWAP4 SWAP3 SWAP2 SWAP1 PUSH2 0x1109 JUMP JUMPDEST PUSH1 0x40 DUP1 MLOAD PUSH1 0x1F NOT DUP2 DUP5 SUB ADD DUP2 MSTORE SWAP1 DUP3 SWAP1 MSTORE PUSH1 0x1 PUSH1 0x1 PUSH1 0xE0 SHL SUB NOT PUSH1 0xE0 DUP5 SWAP1 SHL AND DUP3 MSTORE PUSH2 0x3F2 SWAP2 DUP8 SWAP1 ADDRESS SWAP1 PUSH1 0x0 SWAP1 PUSH2 0xE10 SWAP1 PUSH32 0x0 SWAP1 DUP11 SWAP1 PUSH32 0x0 SWAP1 DUP6 SWAP1 PUSH1 0x4 ADD PUSH2 0x1250 JUMP JUMPDEST PUSH1 0x20 PUSH1 0x40 MLOAD DUP1 DUP4 SUB DUP2 PUSH1 0x0 DUP8 GAS CALL ISZERO DUP1 ISZERO PUSH2 0x411 JUMPI RETURNDATASIZE PUSH1 0x0 DUP1 RETURNDATACOPY RETURNDATASIZE PUSH1 0x0 REVERT JUMPDEST POP POP POP POP PUSH1 0x40 MLOAD RETURNDATASIZE PUSH1 0x1F NOT PUSH1 0x1F DUP3 ADD AND DUP3 ADD DUP1 PUSH1 0x40 MSTORE POP DUP2 ADD SWAP1 PUSH2 0x435 SWAP2 SWAP1 PUSH2 0x10D4 JUMP JUMPDEST SWAP2 POP PUSH1 0x40 MLOAD DUP1 PUSH1 0x80 ADD PUSH1 0x40 MSTORE DUP1 DUP8 DUP2 MSTORE PUSH1 0x20 ADD DUP7 DUP7 DUP1 DUP1 PUSH1 0x1F ADD PUSH1 0x20 DUP1 SWAP2 DIV MUL PUSH1 0x20 ADD PUSH1 0x40 MLOAD SWAP1 DUP2 ADD PUSH1 0x40 MSTORE DUP1 SWAP4 SWAP3 SWAP2 SWAP1 DUP2 DUP2 MSTORE PUSH1 0x20 ADD DUP4 DUP4 DUP1 DUP3 DUP5 CALLDATACOPY PUSH1 0x0 SWAP3 ADD DUP3 SWAP1 MSTORE POP SWAP4 DUP6 MSTORE POP POP POP PUSH1 0x1 PUSH1 0x1 PUSH1 0xA0 SHL SUB DUP7 AND PUSH1 0x20 DUP1 DUP5 ADD SWAP2 SWAP1 SWAP2 MSTORE PUSH1 0x40 SWAP3 DUP4 ADD DUP3 SWAP1 MSTORE DUP6 DUP3 MSTORE DUP2 DUP2 MSTORE SWAP2 SWAP1 KECCAK256 DUP3 MLOAD DUP2 SSTORE SWAP1 DUP3 ADD MLOAD PUSH1 0x1 DUP3 ADD SWAP1 PUSH2 0x4BB SWAP1 DUP3 PUSH2 0x135C JUMP JUMPDEST POP PUSH1 0x40 DUP3 DUP2 ADD MLOAD PUSH1 0x2 SWAP1 SWAP3 ADD DUP1 SLOAD PUSH1 0x60 SWAP1 SWAP5 ADD MLOAD ISZERO ISZERO PUSH1 0x1 PUSH1 0xA0 SHL MUL PUSH1 0x1 PUSH1 0x1 PUSH1 0xA8 SHL SUB NOT SWAP1 SWAP5 AND PUSH1 0x1 PUSH1 0x1 PUSH1 0xA0 SHL SUB SWAP4 DUP5 AND OR SWAP4 SWAP1 SWAP4 OR SWAP1 SWAP3 SSTORE SWAP1 MLOAD DUP4 SWAP2 DUP6 AND SWAP1 DUP9 SWAP1 PUSH32 0xB3B5C304BC1BA781EA735C86E786E9AE6432B86B469FBC00EC8BB252BF54EDA8 SWAP1 PUSH2 0x52E SWAP1 DUP11 SWAP1 DUP11 SWAP1 PUSH2 0x141C JUMP JUMPDEST PUSH1 0x40 MLOAD DUP1 SWAP2 SUB SWAP1 LOG4 POP SWAP5 SWAP4 POP POP POP POP JUMP JUMPDEST PUSH1 0x0 DUP2 DUP2 MSTORE PUSH1 0x20 DUP2 SWAP1 MSTORE PUSH1 0x40 DUP2 KECCAK256 PUSH1 0x2 ADD SLOAD PUSH1 0x60 SWAP1 PUSH1 0x1 PUSH1 0xA0 SHL SWAP1 DIV PUSH1 0xFF AND PUSH2 0x57A JUMPI POP POP PUSH1 0x40 DUP1 MLOAD PUSH1 0x20 DUP2 ADD SWAP1 SWAP2 MSTORE PUSH1 0x0 DUP1 DUP3 MSTORE SWAP3 SWAP1 SWAP2 POP JUMP JUMPDEST PUSH1 0x0 DUP4 DUP2 MSTORE PUSH1 0x20 DUP2 SWAP1 MSTORE PUSH1 0x40 SWAP1 KECCAK256 PUSH1 0x1 SWAP1 DUP2 ADD DUP1 SLOAD DUP2 SWAP1 PUSH2 0x59A SWAP1 PUSH2 0x12D4 JUMP JUMPDEST DUP1 PUSH1 0x1F ADD PUSH1 0x20 DUP1 SWAP2 DIV MUL PUSH1 0x20 ADD PUSH1 0x40 MLOAD SWAP1 DUP2 ADD PUSH1 0x40 MSTORE DUP1 SWAP3 SWAP2 SWAP1 DUP2 DUP2 MSTORE PUSH1 0x20 ADD DUP3 DUP1 SLOAD PUSH2 0x5C6 SWAP1 PUSH2 0x12D4 JUMP JUMPDEST DUP1 ISZERO PUSH2 0x613 JUMPI DUP1 PUSH1 0x1F LT PUSH2 0x5E8 JUMPI PUSH2 0x100 DUP1 DUP4 SLOAD DIV MUL DUP4 MSTORE SWAP2 PUSH1 0x20 ADD SWAP2 PUSH2 0x613 JUMP JUMPDEST DUP3 ADD SWAP2 SWAP1 PUSH1 0x0 MSTORE PUSH1 0x20 PUSH1 0x0 KECCAK256 SWAP1 JUMPDEST DUP2 SLOAD DUP2 MSTORE SWAP1 PUSH1 0x1 ADD SWAP1 PUSH1 0x20 ADD DUP1 DUP4 GT PUSH2 0x5F6 JUMPI DUP3 SWAP1 SUB PUSH1 0x1F AND DUP3 ADD SWAP2 JUMPDEST POP POP POP POP POP SWAP1 POP SWAP2 POP SWAP2 POP SWAP2 POP SWAP2 JUMP JUMPDEST CALLER PUSH1 0x1 PUSH1 0x1 PUSH1 0xA0 SHL SUB PUSH32 0x0 AND EQ PUSH2 0x658 JUMPI PUSH1 0x0 DUP1 REVERT JUMPDEST DUP1 ISZERO PUSH2 0x7A2 JUMPI PUSH1 0x0 DUP3 DUP2 MSTORE PUSH1 0x20 DUP2 DUP2 MSTORE PUSH1 0x40 DUP1 DUP4 KECCAK256 PUSH1 0x2 DUP2 ADD DUP1 SLOAD PUSH1 0xFF PUSH1 0xA0 SHL NOT AND PUSH1 0x1 PUSH1 0xA0 SHL OR SWAP1 SSTORE DUP2 MLOAD PUSH1 0x80 DUP2 ADD SWAP1 SWAP3 MSTORE DUP1 SLOAD DUP3 MSTORE PUSH1 0x1 DUP2 ADD DUP1 SLOAD SWAP3 SWAP4 SWAP2 SWAP3 SWAP2 DUP5 ADD SWAP2 PUSH2 0x6A6 SWAP1 PUSH2 0x12D4 JUMP JUMPDEST DUP1 PUSH1 0x1F ADD PUSH1 0x20 DUP1 SWAP2 DIV MUL PUSH1 0x20 ADD PUSH1 0x40 MLOAD SWAP1 DUP2 ADD PUSH1 0x40 MSTORE DUP1 SWAP3 SWAP2 SWAP1 DUP2 DUP2 MSTORE PUSH1 0x20 ADD DUP3 DUP1 SLOAD PUSH2 0x6D2 SWAP1 PUSH2 0x12D4 JUMP JUMPDEST DUP1 ISZERO PUSH2 0x71F JUMPI DUP1 PUSH1 0x1F LT PUSH2 0x6F4 JUMPI PUSH2 0x100 DUP1 DUP4 SLOAD DIV MUL DUP4 MSTORE SWAP2 PUSH1 0x20 ADD SWAP2 PUSH2 0x71F JUMP JUMPDEST DUP3 ADD SWAP2 SWAP1 PUSH1 0x0 MSTORE PUSH1 0x20 PUSH1 0x0 KECCAK256 SWAP1 JUMPDEST DUP2 SLOAD DUP2 MSTORE SWAP1 PUSH1 0x1 ADD SWAP1 PUSH1 0x20 ADD DUP1 DUP4 GT PUSH2 0x702 JUMPI DUP3 SWAP1 SUB PUSH1 0x1F AND DUP3 ADD SWAP2 JUMPDEST POP POP POP SWAP2 DUP4 MSTORE POP POP PUSH1 0x2 SWAP2 SWAP1 SWAP2 ADD SLOAD PUSH1 0x1 PUSH1 0x1 PUSH1 0xA0 SHL SUB DUP1 DUP3 AND PUSH1 0x20 DUP1 DUP6 ADD SWAP2 SWAP1 SWAP2 MSTORE PUSH1 0x1 PUSH1 0xA0 SHL SWAP1 SWAP3 DIV PUSH1 0xFF AND ISZERO ISZERO PUSH1 0x40 SWAP4 DUP5 ADD MSTORE DUP4 DUP4 ADD MLOAD DUP5 MLOAD SWAP3 DUP6 ADD MLOAD SWAP4 MLOAD SWAP5 SWAP6 POP DUP8 SWAP5 SWAP2 AND SWAP3 PUSH32 0x2CD47D03CA5EED86ED11475382AF40BC0F2965DD65BC4AB337D45577EA5DFAF9 SWAP2 PUSH2 0x795 SWAP2 SWAP1 PUSH2 0x144B JUMP JUMPDEST PUSH1 0x40 MLOAD DUP1 SWAP2 SUB SWAP1 LOG4 POP POP POP JUMP JUMPDEST PUSH1 0x0 DUP3 DUP2 MSTORE PUSH1 0x20 DUP2 SWAP1 MSTORE PUSH1 0x40 DUP2 KECCAK256 DUP2 DUP2 SSTORE SWAP1 PUSH2 0x7C1 PUSH1 0x1 DUP4 ADD DUP3 PUSH2 0xF29 JUMP JUMPDEST POP PUSH1 0x2 ADD DUP1 SLOAD PUSH1 0x1 PUSH1 0x1 PUSH1 0xA8 SHL SUB NOT AND SWAP1 SSTORE POP POP JUMP JUMPDEST PUSH1 0x40 MLOAD PUSH1 0x1 PUSH1 0x1 PUSH1 0xA0 SHL SUB DUP1 DUP6 AND PUSH1 0x24 DUP4 ADD MSTORE DUP4 AND PUSH1 0x44 DUP3 ADD MSTORE PUSH1 0x64 DUP2 ADD DUP3 SWAP1 MSTORE PUSH2 0x842 SWAP1 DUP6 SWAP1 PUSH4 0x23B872DD PUSH1 0xE0 SHL SWAP1 PUSH1 0x84 ADD JUMPDEST PUSH1 0x40 DUP1 MLOAD PUSH1 0x1F NOT DUP2 DUP5 SUB ADD DUP2 MSTORE SWAP2 SWAP1 MSTORE PUSH1 0x20 DUP2 ADD DUP1 MLOAD PUSH1 0x1 PUSH1 0x1 PUSH1 0xE0 SHL SUB AND PUSH1 0x1 PUSH1 0x1 PUSH1 0xE0 SHL SUB NOT SWAP1 SWAP4 AND SWAP3 SWAP1 SWAP3 OR SWAP1 SWAP2 MSTORE PUSH2 0xB2B JUMP JUMPDEST POP POP POP POP JUMP JUMPDEST DUP1 ISZERO DUP1 PUSH2 0x8C2 JUMPI POP PUSH1 0x40 MLOAD PUSH4 0x6EB1769F PUSH1 0xE1 SHL DUP2 MSTORE ADDRESS PUSH1 0x4 DUP3 ADD MSTORE PUSH1 0x1 PUSH1 0x1 PUSH1 0xA0 SHL SUB DUP4 DUP2 AND PUSH1 0x24 DUP4 ADD MSTORE DUP5 AND SWAP1 PUSH4 0xDD62ED3E SWAP1 PUSH1 0x44 ADD PUSH1 0x20 PUSH1 0x40 MLOAD DUP1 DUP4 SUB DUP2 DUP7 GAS STATICCALL ISZERO DUP1 ISZERO PUSH2 0x89C JUMPI RETURNDATASIZE PUSH1 0x0 DUP1 RETURNDATACOPY RETURNDATASIZE PUSH1 0x0 REVERT JUMPDEST POP POP POP POP PUSH1 0x40 MLOAD RETURNDATASIZE PUSH1 0x1F NOT PUSH1 0x1F DUP3 ADD AND DUP3 ADD DUP1 PUSH1 0x40 MSTORE POP DUP2 ADD SWAP1 PUSH2 0x8C0 SWAP2 SWAP1 PUSH2 0x10D4 JUMP JUMPDEST ISZERO JUMPDEST PUSH2 0x932 JUMPI PUSH1 0x40 MLOAD PUSH3 0x461BCD PUSH1 0xE5 SHL DUP2 MSTORE PUSH1 0x20 PUSH1 0x4 DUP3 ADD MSTORE PUSH1 0x36 PUSH1 0x24 DUP3 ADD MSTORE PUSH32 0x5361666545524332303A20617070726F76652066726F6D206E6F6E2D7A65726F PUSH1 0x44 DUP3 ADD MSTORE PUSH22 0x20746F206E6F6E2D7A65726F20616C6C6F77616E6365 PUSH1 0x50 SHL PUSH1 0x64 DUP3 ADD MSTORE PUSH1 0x84 ADD JUMPDEST PUSH1 0x40 MLOAD DUP1 SWAP2 SUB SWAP1 REVERT JUMPDEST PUSH1 0x40 MLOAD PUSH1 0x1 PUSH1 0x1 PUSH1 0xA0 SHL SUB DUP4 AND PUSH1 0x24 DUP3 ADD MSTORE PUSH1 0x44 DUP2 ADD DUP3 SWAP1 MSTORE PUSH2 0x962 SWAP1 DUP5 SWAP1 PUSH4 0x95EA7B3 PUSH1 0xE0 SHL SWAP1 PUSH1 0x64 ADD PUSH2 0x80B JUMP JUMPDEST POP POP POP JUMP JUMPDEST PUSH1 0x60 PUSH2 0x976 PUSH1 0x80 DUP4 SWAP1 SHR PUSH2 0xC00 JUMP JUMPDEST PUSH2 0x97F DUP4 PUSH2 0xC00 JUMP JUMPDEST PUSH1 0x40 DUP1 MLOAD PUSH1 0x20 DUP2 ADD SWAP4 SWAP1 SWAP4 MSTORE DUP3 ADD MSTORE PUSH1 0x60 ADD JUMPDEST PUSH1 0x40 MLOAD PUSH1 0x20 DUP2 DUP4 SUB SUB DUP2 MSTORE SWAP1 PUSH1 0x40 MSTORE SWAP1 POP SWAP2 SWAP1 POP JUMP JUMPDEST PUSH1 0x60 PUSH2 0x9C0 PUSH1 0x1 PUSH1 0x1 PUSH1 0x80 SHL SUB PUSH1 0x20 DUP5 SWAP1 SHR AND PUSH2 0xC00 JUMP JUMPDEST PUSH2 0x9DB DUP4 PUSH1 0x60 SHL PUSH12 0xFFFFFFFFFFFFFFFFFFFFFFFF NOT AND PUSH2 0xC00 JUMP JUMPDEST PUSH1 0x40 MLOAD PUSH1 0x20 ADD PUSH2 0x992 SWAP3 SWAP2 SWAP1 SWAP2 DUP3 MSTORE PUSH1 0x1 PUSH1 0x1 PUSH1 0xC0 SHL SUB NOT AND PUSH1 0x20 DUP3 ADD MSTORE PUSH1 0x28 ADD SWAP1 JUMP JUMPDEST PUSH1 0x60 DUP2 PUSH1 0x0 SUB PUSH2 0xA26 JUMPI POP POP PUSH1 0x40 DUP1 MLOAD DUP1 DUP3 ADD SWAP1 SWAP2 MSTORE PUSH1 0x1 DUP2 MSTORE PUSH1 0x3 PUSH1 0xFC SHL PUSH1 0x20 DUP3 ADD MSTORE SWAP1 JUMP JUMPDEST DUP2 PUSH1 0x0 JUMPDEST DUP2 ISZERO PUSH2 0xA50 JUMPI DUP1 PUSH2 0xA3A DUP2 PUSH2 0x147B JUMP JUMPDEST SWAP2 POP PUSH2 0xA49 SWAP1 POP PUSH1 0xA DUP4 PUSH2 0x14AA JUMP JUMPDEST SWAP2 POP PUSH2 0xA2A JUMP JUMPDEST PUSH1 0x0 DUP2 PUSH8 0xFFFFFFFFFFFFFFFF DUP2 GT ISZERO PUSH2 0xA6B JUMPI PUSH2 0xA6B PUSH2 0x12BE JUMP JUMPDEST PUSH1 0x40 MLOAD SWAP1 DUP1 DUP3 MSTORE DUP1 PUSH1 0x1F ADD PUSH1 0x1F NOT AND PUSH1 0x20 ADD DUP3 ADD PUSH1 0x40 MSTORE DUP1 ISZERO PUSH2 0xA95 JUMPI PUSH1 0x20 DUP3 ADD DUP2 DUP1 CALLDATASIZE DUP4 CALLDATACOPY ADD SWAP1 POP JUMPDEST POP SWAP1 POP DUP2 JUMPDEST DUP6 ISZERO PUSH2 0xB22 JUMPI PUSH2 0xAAB PUSH1 0x1 DUP3 PUSH2 0x14CC JUMP JUMPDEST SWAP1 POP PUSH1 0x0 PUSH2 0xABA PUSH1 0xA DUP9 PUSH2 0x14AA JUMP JUMPDEST PUSH2 0xAC5 SWAP1 PUSH1 0xA PUSH2 0x14E5 JUMP JUMPDEST PUSH2 0xACF SWAP1 DUP9 PUSH2 0x14CC JUMP JUMPDEST PUSH2 0xADA SWAP1 PUSH1 0x30 PUSH2 0x1504 JUMP JUMPDEST SWAP1 POP PUSH1 0x0 DUP2 PUSH1 0xF8 SHL SWAP1 POP DUP1 DUP5 DUP5 DUP2 MLOAD DUP2 LT PUSH2 0xAF7 JUMPI PUSH2 0xAF7 PUSH2 0x151D JUMP JUMPDEST PUSH1 0x20 ADD ADD SWAP1 PUSH1 0x1 PUSH1 0x1 PUSH1 0xF8 SHL SUB NOT AND SWAP1 DUP2 PUSH1 0x0 BYTE SWAP1 MSTORE8 POP PUSH2 0xB19 PUSH1 0xA DUP10 PUSH2 0x14AA JUMP JUMPDEST SWAP8 POP POP POP PUSH2 0xA9A JUMP JUMPDEST POP SWAP5 SWAP4 POP POP POP POP JUMP JUMPDEST PUSH1 0x0 PUSH2 0xB80 DUP3 PUSH1 0x40 MLOAD DUP1 PUSH1 0x40 ADD PUSH1 0x40 MSTORE DUP1 PUSH1 0x20 DUP2 MSTORE PUSH1 0x20 ADD PUSH32 0x5361666545524332303A206C6F772D6C6576656C2063616C6C206661696C6564 DUP2 MSTORE POP DUP6 PUSH1 0x1 PUSH1 0x1 PUSH1 0xA0 SHL SUB AND PUSH2 0xD99 SWAP1 SWAP3 SWAP2 SWAP1 PUSH4 0xFFFFFFFF AND JUMP JUMPDEST SWAP1 POP DUP1 MLOAD PUSH1 0x0 EQ DUP1 PUSH2 0xBA1 JUMPI POP DUP1 DUP1 PUSH1 0x20 ADD SWAP1 MLOAD DUP2 ADD SWAP1 PUSH2 0xBA1 SWAP2 SWAP1 PUSH2 0x1533 JUMP JUMPDEST PUSH2 0x962 JUMPI PUSH1 0x40 MLOAD PUSH3 0x461BCD PUSH1 0xE5 SHL DUP2 MSTORE PUSH1 0x20 PUSH1 0x4 DUP3 ADD MSTORE PUSH1 0x2A PUSH1 0x24 DUP3 ADD MSTORE PUSH32 0x5361666545524332303A204552433230206F7065726174696F6E20646964206E PUSH1 0x44 DUP3 ADD MSTORE PUSH10 0x1BDD081CDD58D8D95959 PUSH1 0xB2 SHL PUSH1 0x64 DUP3 ADD MSTORE PUSH1 0x84 ADD PUSH2 0x929 JUMP JUMPDEST PUSH1 0x0 DUP1 DUP3 PUSH1 0x0 SHR SWAP1 POP DUP1 PUSH1 0x1 PUSH1 0x1 PUSH1 0x80 SHL SUB AND SWAP1 POP DUP1 PUSH9 0x10000000000000000 MUL DUP2 OR PUSH24 0xFFFFFFFFFFFFFFFF0000000000000000FFFFFFFFFFFFFFFF AND SWAP1 POP DUP1 PUSH5 0x100000000 MUL DUP2 OR PUSH28 0xFFFFFFFF00000000FFFFFFFF00000000FFFFFFFF00000000FFFFFFFF AND SWAP1 POP DUP1 PUSH3 0x10000 MUL DUP2 OR PUSH30 0xFFFF0000FFFF0000FFFF0000FFFF0000FFFF0000FFFF0000FFFF0000FFFF AND SWAP1 POP DUP1 PUSH2 0x100 MUL DUP2 OR PUSH31 0xFF00FF00FF00FF00FF00FF00FF00FF00FF00FF00FF00FF00FF00FF00FF00FF AND SWAP1 POP DUP1 PUSH1 0x10 MUL DUP2 OR PUSH32 0xF0F0F0F0F0F0F0F0F0F0F0F0F0F0F0F0F0F0F0F0F0F0F0F0F0F0F0F0F0F0F0F AND SWAP1 POP PUSH1 0x0 PUSH1 0x8 DUP3 PUSH32 0x808080808080808080808080808080808080808080808080808080808080808 AND DUP2 PUSH2 0xD1B JUMPI PUSH2 0xD1B PUSH2 0x1494 JUMP JUMPDEST DIV PUSH1 0x4 PUSH32 0x404040404040404040404040404040404040404040404040404040404040404 DUP5 AND DIV PUSH1 0x2 PUSH32 0x202020202020202020202020202020202020202020202020202020202020202 DUP6 AND DIV OR AND PUSH1 0x27 MUL SWAP1 SWAP2 ADD PUSH32 0x3030303030303030303030303030303030303030303030303030303030303030 ADD SWAP4 SWAP3 POP POP POP JUMP JUMPDEST PUSH1 0x60 PUSH2 0xDA8 DUP5 DUP5 PUSH1 0x0 DUP6 PUSH2 0xDB0 JUMP JUMPDEST SWAP5 SWAP4 POP POP POP POP JUMP JUMPDEST PUSH1 0x60 DUP3 SELFBALANCE LT ISZERO PUSH2 0xE11 JUMPI PUSH1 0x40 MLOAD PUSH3 0x461BCD PUSH1 0xE5 SHL DUP2 MSTORE PUSH1 0x20 PUSH1 0x4 DUP3 ADD MSTORE PUSH1 0x26 PUSH1 0x24 DUP3 ADD MSTORE PUSH32 0x416464726573733A20696E73756666696369656E742062616C616E636520666F PUSH1 0x44 DUP3 ADD MSTORE PUSH6 0x1C8818D85B1B PUSH1 0xD2 SHL PUSH1 0x64 DUP3 ADD MSTORE PUSH1 0x84 ADD PUSH2 0x929 JUMP JUMPDEST PUSH1 0x0 DUP1 DUP7 PUSH1 0x1 PUSH1 0x1 PUSH1 0xA0 SHL SUB AND DUP6 DUP8 PUSH1 0x40 MLOAD PUSH2 0xE2D SWAP2 SWAP1 PUSH2 0x1550 JUMP JUMPDEST PUSH1 0x0 PUSH1 0x40 MLOAD DUP1 DUP4 SUB DUP2 DUP6 DUP8 GAS CALL SWAP3 POP POP POP RETURNDATASIZE DUP1 PUSH1 0x0 DUP2 EQ PUSH2 0xE6A JUMPI PUSH1 0x40 MLOAD SWAP2 POP PUSH1 0x1F NOT PUSH1 0x3F RETURNDATASIZE ADD AND DUP3 ADD PUSH1 0x40 MSTORE RETURNDATASIZE DUP3 MSTORE RETURNDATASIZE PUSH1 0x0 PUSH1 0x20 DUP5 ADD RETURNDATACOPY PUSH2 0xE6F JUMP JUMPDEST PUSH1 0x60 SWAP2 POP JUMPDEST POP SWAP2 POP SWAP2 POP PUSH2 0xE80 DUP8 DUP4 DUP4 DUP8 PUSH2 0xE8B JUMP JUMPDEST SWAP8 SWAP7 POP POP POP POP POP POP POP JUMP JUMPDEST PUSH1 0x60 DUP4 ISZERO PUSH2 0xEFA JUMPI DUP3 MLOAD PUSH1 0x0 SUB PUSH2 0xEF3 JUMPI PUSH1 0x1 PUSH1 0x1 PUSH1 0xA0 SHL SUB DUP6 AND EXTCODESIZE PUSH2 0xEF3 JUMPI PUSH1 0x40 MLOAD PUSH3 0x461BCD PUSH1 0xE5 SHL DUP2 MSTORE PUSH1 0x20 PUSH1 0x4 DUP3 ADD MSTORE PUSH1 0x1D PUSH1 0x24 DUP3 ADD MSTORE PUSH32 0x416464726573733A2063616C6C20746F206E6F6E2D636F6E7472616374000000 PUSH1 0x44 DUP3 ADD MSTORE PUSH1 0x64 ADD PUSH2 0x929 JUMP JUMPDEST POP DUP2 PUSH2 0xDA8 JUMP JUMPDEST PUSH2 0xDA8 DUP4 DUP4 DUP2 MLOAD ISZERO PUSH2 0xF0F JUMPI DUP2 MLOAD DUP1 DUP4 PUSH1 0x20 ADD REVERT JUMPDEST DUP1 PUSH1 0x40 MLOAD PUSH3 0x461BCD PUSH1 0xE5 SHL DUP2 MSTORE PUSH1 0x4 ADD PUSH2 0x929 SWAP2 SWAP1 PUSH2 0x144B JUMP JUMPDEST POP DUP1 SLOAD PUSH2 0xF35 SWAP1 PUSH2 0x12D4 JUMP JUMPDEST PUSH1 0x0 DUP3 SSTORE DUP1 PUSH1 0x1F LT PUSH2 0xF45 JUMPI POP POP JUMP JUMPDEST PUSH1 0x1F ADD PUSH1 0x20 SWAP1 DIV SWAP1 PUSH1 0x0 MSTORE PUSH1 0x20 PUSH1 0x0 KECCAK256 SWAP1 DUP2 ADD SWAP1 PUSH2 0x16A SWAP2 SWAP1 JUMPDEST DUP1 DUP3 GT ISZERO PUSH2 0xF73 JUMPI PUSH1 0x0 DUP2 SSTORE PUSH1 0x1 ADD PUSH2 0xF5F JUMP JUMPDEST POP SWAP1 JUMP JUMPDEST PUSH1 0x0 DUP1 PUSH1 0x0 DUP1 PUSH1 0x60 DUP6 DUP8 SUB SLT ISZERO PUSH2 0xF8D JUMPI PUSH1 0x0 DUP1 REVERT JUMPDEST DUP5 CALLDATALOAD SWAP4 POP PUSH1 0x20 DUP6 ADD CALLDATALOAD PUSH8 0xFFFFFFFFFFFFFFFF DUP1 DUP3 GT ISZERO PUSH2 0xFAC JUMPI PUSH1 0x0 DUP1 REVERT JUMPDEST DUP2 DUP8 ADD SWAP2 POP DUP8 PUSH1 0x1F DUP4 ADD SLT PUSH2 0xFC0 JUMPI PUSH1 0x0 DUP1 REVERT JUMPDEST DUP2 CALLDATALOAD DUP2 DUP2 GT ISZERO PUSH2 0xFCF JUMPI PUSH1 0x0 DUP1 REVERT JUMPDEST DUP9 PUSH1 0x20 DUP3 DUP6 ADD ADD GT ISZERO PUSH2 0xFE1 JUMPI PUSH1 0x0 DUP1 REVERT JUMPDEST PUSH1 0x20 SWAP3 SWAP1 SWAP3 ADD SWAP5 POP SWAP1 SWAP3 POP POP PUSH1 0x40 DUP6 ADD CALLDATALOAD PUSH1 0x1 PUSH1 0x1 PUSH1 0xA0 SHL SUB DUP2 AND DUP2 EQ PUSH2 0x1007 JUMPI PUSH1 0x0 DUP1 REVERT JUMPDEST SWAP4 SWAP7 SWAP3 SWAP6 POP SWAP1 SWAP4 POP POP JUMP JUMPDEST PUSH1 0x0 PUSH1 0x20 DUP3 DUP5 SUB SLT ISZERO PUSH2 0x1024 JUMPI PUSH1 0x0 DUP1 REVERT JUMPDEST POP CALLDATALOAD SWAP2 SWAP1 POP JUMP JUMPDEST PUSH1 0x0 JUMPDEST DUP4 DUP2 LT ISZERO PUSH2 0x1046 JUMPI DUP2 DUP2 ADD MLOAD DUP4 DUP3 ADD MSTORE PUSH1 0x20 ADD PUSH2 0x102E JUMP JUMPDEST POP POP PUSH1 0x0 SWAP2 ADD MSTORE JUMP JUMPDEST PUSH1 0x0 DUP2 MLOAD DUP1 DUP5 MSTORE PUSH2 0x1067 DUP2 PUSH1 0x20 DUP7 ADD PUSH1 0x20 DUP7 ADD PUSH2 0x102B JUMP JUMPDEST PUSH1 0x1F ADD PUSH1 0x1F NOT AND SWAP3 SWAP1 SWAP3 ADD PUSH1 0x20 ADD SWAP3 SWAP2 POP POP JUMP JUMPDEST DUP3 ISZERO ISZERO DUP2 MSTORE PUSH1 0x40 PUSH1 0x20 DUP3 ADD MSTORE PUSH1 0x0 PUSH2 0xDA8 PUSH1 0x40 DUP4 ADD DUP5 PUSH2 0x104F JUMP JUMPDEST DUP1 ISZERO ISZERO DUP2 EQ PUSH2 0x16A JUMPI PUSH1 0x0 DUP1 REVERT JUMPDEST PUSH1 0x0 DUP1 PUSH1 0x40 DUP4 DUP6 SUB SLT ISZERO PUSH2 0x10B7 JUMPI PUSH1 0x0 DUP1 REVERT JUMPDEST DUP3 CALLDATALOAD SWAP2 POP PUSH1 0x20 DUP4 ADD CALLDATALOAD PUSH2 0x10C9 DUP2 PUSH2 0x1096 JUMP JUMPDEST DUP1 SWAP2 POP POP SWAP3 POP SWAP3 SWAP1 POP JUMP JUMPDEST PUSH1 0x0 PUSH1 0x20 DUP3 DUP5 SUB SLT ISZERO PUSH2 0x10E6 JUMPI PUSH1 0x0 DUP1 REVERT JUMPDEST POP MLOAD SWAP2 SWAP1 POP JUMP JUMPDEST PUSH1 0x0 DUP2 MLOAD PUSH2 0x10FF DUP2 DUP6 PUSH1 0x20 DUP7 ADD PUSH2 0x102B JUMP JUMPDEST SWAP3 SWAP1 SWAP3 ADD SWAP3 SWAP2 POP POP JUMP JUMPDEST PUSH32 0x496D6167652061737365727465642061742075726C3A20000000000000000000 DUP2 MSTORE DUP7 DUP9 PUSH1 0x17 DUP4 ADD CALLDATACOPY PUSH1 0x0 DUP8 DUP3 ADD PUSH16 0x40CCDEE440D2DAC2CECA9288744060F PUSH1 0x83 SHL PUSH1 0x17 DUP3 ADD MSTORE DUP8 MLOAD PUSH2 0x1164 DUP2 PUSH1 0x27 DUP5 ADD PUSH1 0x20 DUP13 ADD PUSH2 0x102B JUMP JUMPDEST PUSH17 0x40C2DCC840C2E6E6CAE4E8CAE4744060F PUSH1 0x7B SHL PUSH1 0x27 SWAP3 SWAP1 SWAP2 ADD SWAP2 DUP3 ADD MSTORE DUP7 MLOAD PUSH2 0x1196 DUP2 PUSH1 0x38 DUP5 ADD PUSH1 0x20 DUP12 ADD PUSH2 0x102B JUMP JUMPDEST DUP7 MLOAD SWAP2 ADD SWAP1 PUSH2 0x11AC DUP2 PUSH1 0x38 DUP5 ADD PUSH1 0x20 DUP11 ADD PUSH2 0x102B JUMP JUMPDEST PUSH15 0x1030BA103A34B6B2B9BA30B6B81D1 PUSH1 0x8D SHL PUSH1 0x38 SWAP3 SWAP1 SWAP2 ADD SWAP2 DUP3 ADD MSTORE DUP5 MLOAD PUSH2 0x11DC DUP2 PUSH1 0x47 DUP5 ADD PUSH1 0x20 DUP10 ADD PUSH2 0x102B JUMP JUMPDEST PUSH32 0x20696E207468652044617461417373657274657220636F6E7472616374206174 PUSH1 0x47 SWAP3 SWAP1 SWAP2 ADD SWAP2 DUP3 ADD MSTORE PUSH3 0x4060F PUSH1 0xEB SHL PUSH1 0x67 DUP3 ADD MSTORE PUSH2 0x1242 PUSH2 0x1223 PUSH1 0x6A DUP4 ADD DUP7 PUSH2 0x10ED JUMP JUMPDEST PUSH19 0x1034B9903737BA1030903232B2B83330B5B297 PUSH1 0x69 SHL DUP2 MSTORE PUSH1 0x13 ADD SWAP1 JUMP JUMPDEST SWAP11 SWAP10 POP POP POP POP POP POP POP POP POP POP JUMP JUMPDEST PUSH1 0x0 PUSH2 0x120 DUP1 DUP4 MSTORE PUSH2 0x1264 DUP2 DUP5 ADD DUP14 PUSH2 0x104F JUMP JUMPDEST PUSH1 0x1 PUSH1 0x1 PUSH1 0xA0 SHL SUB SWAP12 DUP13 AND PUSH1 0x20 DUP6 ADD MSTORE SWAP10 DUP12 AND PUSH1 0x40 DUP5 ADD MSTORE POP POP SWAP6 DUP9 AND PUSH1 0x60 DUP8 ADD MSTORE PUSH8 0xFFFFFFFFFFFFFFFF SWAP5 SWAP1 SWAP5 AND PUSH1 0x80 DUP7 ADD MSTORE SWAP2 SWAP1 SWAP6 AND PUSH1 0xA0 DUP5 ADD MSTORE PUSH1 0xC0 DUP4 ADD SWAP5 SWAP1 SWAP5 MSTORE PUSH1 0xE0 DUP3 ADD SWAP4 SWAP1 SWAP4 MSTORE PUSH2 0x100 ADD SWAP2 SWAP1 SWAP2 MSTORE SWAP2 SWAP1 POP JUMP JUMPDEST PUSH4 0x4E487B71 PUSH1 0xE0 SHL PUSH1 0x0 MSTORE PUSH1 0x41 PUSH1 0x4 MSTORE PUSH1 0x24 PUSH1 0x0 REVERT JUMPDEST PUSH1 0x1 DUP2 DUP2 SHR SWAP1 DUP3 AND DUP1 PUSH2 0x12E8 JUMPI PUSH1 0x7F DUP3 AND SWAP2 POP JUMPDEST PUSH1 0x20 DUP3 LT DUP2 SUB PUSH2 0x1308 JUMPI PUSH4 0x4E487B71 PUSH1 0xE0 SHL PUSH1 0x0 MSTORE PUSH1 0x22 PUSH1 0x4 MSTORE PUSH1 0x24 PUSH1 0x0 REVERT JUMPDEST POP SWAP2 SWAP1 POP JUMP JUMPDEST PUSH1 0x1F DUP3 GT ISZERO PUSH2 0x962 JUMPI PUSH1 0x0 DUP2 DUP2 MSTORE PUSH1 0x20 DUP2 KECCAK256 PUSH1 0x1F DUP6 ADD PUSH1 0x5 SHR DUP2 ADD PUSH1 0x20 DUP7 LT ISZERO PUSH2 0x1335 JUMPI POP DUP1 JUMPDEST PUSH1 0x1F DUP6 ADD PUSH1 0x5 SHR DUP3 ADD SWAP2 POP JUMPDEST DUP2 DUP2 LT ISZERO PUSH2 0x1354 JUMPI DUP3 DUP2 SSTORE PUSH1 0x1 ADD PUSH2 0x1341 JUMP JUMPDEST POP POP POP POP POP POP JUMP JUMPDEST DUP2 MLOAD PUSH8 0xFFFFFFFFFFFFFFFF DUP2 GT ISZERO PUSH2 0x1376 JUMPI PUSH2 0x1376 PUSH2 0x12BE JUMP JUMPDEST PUSH2 0x138A DUP2 PUSH2 0x1384 DUP5 SLOAD PUSH2 0x12D4 JUMP JUMPDEST DUP5 PUSH2 0x130E JUMP JUMPDEST PUSH1 0x20 DUP1 PUSH1 0x1F DUP4 GT PUSH1 0x1 DUP2 EQ PUSH2 0x13BF JUMPI PUSH1 0x0 DUP5 ISZERO PUSH2 0x13A7 JUMPI POP DUP6 DUP4 ADD MLOAD JUMPDEST PUSH1 0x0 NOT PUSH1 0x3 DUP7 SWAP1 SHL SHR NOT AND PUSH1 0x1 DUP6 SWAP1 SHL OR DUP6 SSTORE PUSH2 0x1354 JUMP JUMPDEST PUSH1 0x0 DUP6 DUP2 MSTORE PUSH1 0x20 DUP2 KECCAK256 PUSH1 0x1F NOT DUP7 AND SWAP2 JUMPDEST DUP3 DUP2 LT ISZERO PUSH2 0x13EE JUMPI DUP9 DUP7 ADD MLOAD DUP3 SSTORE SWAP5 DUP5 ADD SWAP5 PUSH1 0x1 SWAP1 SWAP2 ADD SWAP1 DUP5 ADD PUSH2 0x13CF JUMP JUMPDEST POP DUP6 DUP3 LT ISZERO PUSH2 0x140C JUMPI DUP8 DUP6 ADD MLOAD PUSH1 0x0 NOT PUSH1 0x3 DUP9 SWAP1 SHL PUSH1 0xF8 AND SHR NOT AND DUP2 SSTORE JUMPDEST POP POP POP POP POP PUSH1 0x1 SWAP1 DUP2 SHL ADD SWAP1 SSTORE POP JUMP JUMPDEST PUSH1 0x20 DUP2 MSTORE DUP2 PUSH1 0x20 DUP3 ADD MSTORE DUP2 DUP4 PUSH1 0x40 DUP4 ADD CALLDATACOPY PUSH1 0x0 DUP2 DUP4 ADD PUSH1 0x40 SWAP1 DUP2 ADD SWAP2 SWAP1 SWAP2 MSTORE PUSH1 0x1F SWAP1 SWAP3 ADD PUSH1 0x1F NOT AND ADD ADD SWAP2 SWAP1 POP JUMP JUMPDEST PUSH1 0x20 DUP2 MSTORE PUSH1 0x0 PUSH2 0x145E PUSH1 0x20 DUP4 ADD DUP5 PUSH2 0x104F JUMP JUMPDEST SWAP4 SWAP3 POP POP POP JUMP JUMPDEST PUSH4 0x4E487B71 PUSH1 0xE0 SHL PUSH1 0x0 MSTORE PUSH1 0x11 PUSH1 0x4 MSTORE PUSH1 0x24 PUSH1 0x0 REVERT JUMPDEST PUSH1 0x0 PUSH1 0x1 DUP3 ADD PUSH2 0x148D JUMPI PUSH2 0x148D PUSH2 0x1465 JUMP JUMPDEST POP PUSH1 0x1 ADD SWAP1 JUMP JUMPDEST PUSH4 0x4E487B71 PUSH1 0xE0 SHL PUSH1 0x0 MSTORE PUSH1 0x12 PUSH1 0x4 MSTORE PUSH1 0x24 PUSH1 0x0 REVERT JUMPDEST PUSH1 0x0 DUP3 PUSH2 0x14C7 JUMPI PUSH4 0x4E487B71 PUSH1 0xE0 SHL PUSH1 0x0 MSTORE PUSH1 0x12 PUSH1 0x4 MSTORE PUSH1 0x24 PUSH1 0x0 REVERT JUMPDEST POP DIV SWAP1 JUMP JUMPDEST DUP2 DUP2 SUB DUP2 DUP2 GT ISZERO PUSH2 0x14DF JUMPI PUSH2 0x14DF PUSH2 0x1465 JUMP JUMPDEST SWAP3 SWAP2 POP POP JUMP JUMPDEST PUSH1 0x0 DUP2 PUSH1 0x0 NOT DIV DUP4 GT DUP3 ISZERO ISZERO AND ISZERO PUSH2 0x14FF JUMPI PUSH2 0x14FF PUSH2 0x1465 JUMP JUMPDEST POP MUL SWAP1 JUMP JUMPDEST PUSH1 0xFF DUP2 DUP2 AND DUP4 DUP3 AND ADD SWAP1 DUP2 GT ISZERO PUSH2 0x14DF JUMPI PUSH2 0x14DF PUSH2 0x1465 JUMP JUMPDEST PUSH4 0x4E487B71 PUSH1 0xE0 SHL PUSH1 0x0 MSTORE PUSH1 0x32 PUSH1 0x4 MSTORE PUSH1 0x24 PUSH1 0x0 REVERT JUMPDEST PUSH1 0x0 PUSH1 0x20 DUP3 DUP5 SUB SLT ISZERO PUSH2 0x1545 JUMPI PUSH1 0x0 DUP1 REVERT JUMPDEST DUP2 MLOAD PUSH2 0x145E DUP2 PUSH2 0x1096 JUMP JUMPDEST PUSH1 0x0 DUP3 MLOAD PUSH2 0x1562 DUP2 DUP5 PUSH1 0x20 DUP8 ADD PUSH2 0x102B JUMP JUMPDEST SWAP2 SWAP1 SWAP2 ADD SWAP3 SWAP2 POP POP JUMP INVALID LOG2 PUSH5 0x6970667358 0x22 SLT KECCAK256 0x22 PUSH22 0x9D2EC01478F58482CFD77D95067E6904F29937712290 EXP COINBASE PUSH14 0xE4B2E7C38464736F6C6343000810 STOP CALLER "
		},
		"gasEstimates": {
			"creation": {
				"codeDepositCost": "1107600",
				"executionCost": "infinite",
				"totalCost": "infinite"
			},
			"external": {
				"assertDataFor(bytes32,string,address)": "infinite",
				"assertionDisputedCallback(bytes32)": "233",
				"assertionLiveness()": "204",
				"assertionResolvedCallback(bytes32,bool)": "infinite",
				"defaultCurrency()": "infinite",
				"defaultIdentifier()": "infinite",
				"getImage(bytes32)": "infinite",
				"oo()": "infinite"
			}
		},
		"methodIdentifiers": {
			"assertDataFor(bytes32,string,address)": "096464cc",
			"assertionDisputedCallback(bytes32)": "d448a4ec",
			"assertionLiveness()": "b75d4e24",
			"assertionResolvedCallback(bytes32,bool)": "f1b156b2",
			"defaultCurrency()": "20402e1d",
			"defaultIdentifier()": "d509b017",
			"getImage(bytes32)": "6ced1ae9",
			"oo()": "8921a614"
		}
	},
	"abi": [
		{
			"inputs": [],
			"stateMutability": "nonpayable",
			"type": "constructor"
		},
		{
			"anonymous": false,
			"inputs": [
				{
					"indexed": true,
					"internalType": "bytes32",
					"name": "imageId",
					"type": "bytes32"
				},
				{
					"indexed": false,
					"internalType": "string",
					"name": "imageUrl",
					"type": "string"
				},
				{
					"indexed": true,
					"internalType": "address",
					"name": "asserter",
					"type": "address"
				},
				{
					"indexed": true,
					"internalType": "bytes32",
					"name": "assertionId",
					"type": "bytes32"
				}
			],
			"name": "ImageAsserted",
			"type": "event"
		},
		{
			"anonymous": false,
			"inputs": [
				{
					"indexed": true,
					"internalType": "bytes32",
					"name": "imageId",
					"type": "bytes32"
				},
				{
					"indexed": false,
					"internalType": "string",
					"name": "imageUrl",
					"type": "string"
				},
				{
					"indexed": true,
					"internalType": "address",
					"name": "asserter",
					"type": "address"
				},
				{
					"indexed": true,
					"internalType": "bytes32",
					"name": "assertionId",
					"type": "bytes32"
				}
			],
			"name": "ImageAssertionResolved",
			"type": "event"
		},
		{
			"inputs": [
				{
					"internalType": "bytes32",
					"name": "imageId",
					"type": "bytes32"
				},
				{
					"internalType": "string",
					"name": "imageUrl",
					"type": "string"
				},
				{
					"internalType": "address",
					"name": "asserter",
					"type": "address"
				}
			],
			"name": "assertDataFor",
			"outputs": [
				{
					"internalType": "bytes32",
					"name": "assertionId",
					"type": "bytes32"
				}
			],
			"stateMutability": "nonpayable",
			"type": "function"
		},
		{
			"inputs": [
				{
					"internalType": "bytes32",
					"name": "assertionId",
					"type": "bytes32"
				}
			],
			"name": "assertionDisputedCallback",
			"outputs": [],
			"stateMutability": "nonpayable",
			"type": "function"
		},
		{
			"inputs": [],
			"name": "assertionLiveness",
			"outputs": [
				{
					"internalType": "uint64",
					"name": "",
					"type": "uint64"
				}
			],
			"stateMutability": "view",
			"type": "function"
		},
		{
			"inputs": [
				{
					"internalType": "bytes32",
					"name": "assertionId",
					"type": "bytes32"
				},
				{
					"internalType": "bool",
					"name": "assertedTruthfully",
					"type": "bool"
				}
			],
			"name": "assertionResolvedCallback",
			"outputs": [],
			"stateMutability": "nonpayable",
			"type": "function"
		},
		{
			"inputs": [],
			"name": "defaultCurrency",
			"outputs": [
				{
					"internalType": "contract IERC20",
					"name": "",
					"type": "address"
				}
			],
			"stateMutability": "view",
			"type": "function"
		},
		{
			"inputs": [],
			"name": "defaultIdentifier",
			"outputs": [
				{
					"internalType": "bytes32",
					"name": "",
					"type": "bytes32"
				}
			],
			"stateMutability": "view",
			"type": "function"
		},
		{
			"inputs": [
				{
					"internalType": "bytes32",
					"name": "assertionId",
					"type": "bytes32"
				}
			],
			"name": "getImage",
			"outputs": [
				{
					"internalType": "bool",
					"name": "",
					"type": "bool"
				},
				{
					"internalType": "string",
					"name": "",
					"type": "string"
				}
			],
			"stateMutability": "view",
			"type": "function"
		},
		{
			"inputs": [],
			"name": "oo",
			"outputs": [
				{
					"internalType": "contract OptimisticOracleV3Interface",
					"name": "",
					"type": "address"
				}
			],
			"stateMutability": "view",
			"type": "function"
		}
	]
}